:100000000C942A000C943F000C943F000C943F0089
:100010000C943F000C943F000C943F000C943F0064
:100020000C943F000C943F000C943F000C943F0054
:100030000C943F000C943F000C943F000C943F0044
:100040000C943F000C943F000C943F000C943F0034
:100050000C943F0011241FBECFE5D8E0DEBFCDBF1A
:1000600010E0A0E6B0E0EAE5F3E002C005900D92F2
:10007000A038B107D9F70E9493000C94AB010C94FF
:100080000000CF93C82F60E081E00E949A0088B3FF
:100090006C2F0E949B0161E080E00E949A008FE932
:1000A0009FE00197F1F700C0000060E080E00E944F
:1000B0009A008FE99FE00197F1F700C00000CF910F
:1000C00008952FE788E391E0215080409040E1F7C8
:1000D00000C0000060E081E00E949A0080E30E947E
:1000E00041008FEC97E00197F1F700C0000088E035
:1000F0000E9441008FEC97E00197F1F700C00000EB
:1001000081E00E9441008FE097E20197F1F700C083
:10011000000084E00E9441008FEC97E00197F1F726
:1001200000C0000008950E948B010E94610080E0E1
:1001300090E00895982F96959695969587706130E2
:1001400009F445C020F0623009F491C0E0C091305C
:10015000A1F028F09230F9F0933059F108954AB3A4
:1001600021E030E0B90102C0660F771F8A95E2F7FF
:10017000CB01809584238ABB089547B321E030E00A
:10018000B90102C0660F771F8A95E2F7CB0180950F
:10019000842387BB089544B321E030E0B90102C055
:1001A000660F771F8A95E2F7CB018095842384BB85
:1001B000089541B321E030E0B90102C0660F771F16
:1001C0008A95E2F7CB018095842381BB0895913015
:1001D000C1F028F0923039F19330B9F108954AB363
:1001E00021E030E0B90102C0660F771F8A95E2F77F
:1001F000CB01942F982B9ABB9BB3809589238BBB03
:10020000089547B321E030E0B90102C0660F771FBF
:100210008A95E2F7CB01942F982B97BB98B38095E2
:10022000892388BB089544B321E030E0B90102C0BE
:10023000660F771F8A95E2F7CB01942F982B94BB1A
:1002400095B38095892385BB089541B321E030E0C3
:10025000B90102C0660F771F8A95E2F7CB01942F90
:10026000982B91BB92B38095892382BB08959130DE
:10027000C1F028F0923039F19330B9F108954AB3C2
:1002800021E030E0B90102C0660F771F8A95E2F7DE
:10029000CB01962F909594239ABB9BB3892B8BBB54
:1002A000089547B321E030E0B90102C0660F771F1F
:1002B0008A95E2F7CB01962F9095942397BB98B33C
:1002C000892B88BB089544B321E030E0B90102C016
:1002D000660F771F8A95E2F7CB01962F90959423AE
:1002E00094BB95B3892B85BB089541B321E030E0E1
:1002F000B90102C0660F771F8A95E2F7CB01962FEE
:100300009095942391BB92B3892B82BB08958FEF74
:100310008ABB87BB0895CF93C0E009C0EC2FF0E003
:10032000E05AFF4F60818C2F0E949A00CF5FC0324D
:10033000A8F3CF910895813041F028F0823039F050
:10034000833039F008956BBB089568BB089565BB91
:0A035000089562BB0895F894FFCFF2
:10035A000101010100020201010101010101010182
:10036A000101010101010101010101010101010173
:00000001FF
