:100000000C942A000C943F000C943F000C943F0089
:100010000C943F000C943F000C943F000C943F0064
:100020000C943F000C943F000C943F000C943F0054
:100030000C943F000C943F000C943F000C943F0044
:100040000C943F000C943F000C943F000C943F0034
:100050000C943F0011241FBECFE5D8E0DEBFCDBF1A
:1000600010E0A0E6B0E0EEEDF4E002C005900D92E5
:10007000A038B107D9F70E94A9000C946D020C9426
:100080000000CF93C82F60E080E00E94E8016C2F51
:1000900081E00E94D80161E081E00E94E8018FECDC
:1000A00097E00197F1F700C0000060E081E00E9456
:1000B000E8018FEC97E00197F1F700C00000CF91C5
:1000C0000895CF93C82F61E080E00E94E8016C2F73
:1000D00081E00E94D80161E081E00E94E8018FEC9C
:1000E00097E00197F1F700C0000060E081E00E9416
:1000F000E8018FEC97E00197F1F700C00000CF9185
:1001000008952FE788E391E0215080409040E1F787
:1001100000C0000088E30E9441008FEC97E0019747
:10012000F1F700C000008CE00E9441008FEC97E0E6
:100130000197F1F700C0000081E00E9441008FE6C6
:1001400097E10197F1F700C0000086E00E944100AE
:1001500008950E94C8010E94810081E40E9461000C
:100160002FEF89E698E1215080409040E1F700C0F0
:10017000000088E60E9461002FEF89E698E1215097
:1001800080409040E1F700C000008DE60E946100D1
:1001900080E090E00895982F9695969596958770B3
:1001A000613009F455C020F0623009F4A1C008950F
:1001B0009130C1F028F0923039F19330B9F10895BF
:1001C0004AB321E030E0B90102C0660F771F8A957B
:1001D000E2F7CB01942F982B9ABB9BB38095892390
:1001E0008BBB089547B321E030E0B90102C0660F30
:1001F000771F8A95E2F7CB01942F982B97BB98B382
:100200008095892388BB089544B321E030E0B9018B
:1002100002C0660F771F8A95E2F7CB01942F982BC7
:1002200094BB95B38095892385BB089541B321E0A4
:1002300030E0B90102C0660F771F8A95E2F7CB0163
:10024000942F982B91BB92B38095892382BB0895FC
:100250009130C1F028F0923039F19330B9F108951E
:100260004AB321E030E0B90102C0660F771F8A95DA
:10027000E2F7CB018095942F98239ABB9BB38923F7
:100280008BBB089547B321E030E0B90102C0660F8F
:10029000771F8A95E2F7CB018095942F982397BB1F
:1002A00098B3892388BB089544B321E030E0B901B5
:1002B00002C0660F771F8A95E2F7CB018095942FD5
:1002C000982394BB95B3892385BB089541B321E05E
:1002D00030E0B90102C0660F771F8A95E2F7CB01C3
:1002E0008095942F982391BB92B3892382BB089564
:1002F0009130C1F028F0923039F19330B9F108957E
:100300004AB321E030E0B90102C0660F771F8A9539
:10031000E2F7CB01962F909594239ABB9BB3892B40
:100320008BBB089547B321E030E0B90102C0660FEE
:10033000771F8A95E2F7CB01962F9095942397BB70
:1003400098B3892B88BB089544B321E030E0B9010C
:1003500002C0660F771F8A95E2F7CB01962F909522
:10036000942394BB95B3892B85BB089541B321E0B9
:1003700030E0B90102C0660F771F8A95E2F7CB0122
:10038000962F9095942391BB92B3892B82BB0895AD
:10039000CF93C0E009C0EC2FF0E0E05AFF4F60813E
:1003A0008C2F0E94CB00CF5FC032A8F3CF9108956D
:1003B000813041F028F0823039F0833039F00895EF
:1003C0006BBB089568BB089565BB089562BB089533
:1003D000982F96959695969587706130E1F59130B6
:1003E00099F028F09230E9F0933041F108954BB341
:1003F00021E030E0B90102C0660F771F8A95E2F76D
:10040000CB01842B8BBB089548B321E030E0B901C8
:1004100002C0660F771F8A95E2F7CB01842B88BB59
:10042000089545B321E030E0B90102C0660F771F9F
:100430008A95E2F7CB01842B85BB089542B321E076
:1004400030E0B90102C0660F771F8A95E2F7CB0151
:10045000842B82BB089561113FC09130A1F028F038
:100460009230F9F0933059F108954BB321E030E028
:10047000B90102C0660F771F8A95E2F7CB0180951C
:1004800084238BBB089548B321E030E0B90102C05A
:10049000660F771F8A95E2F7CB018095842388BB8E
:1004A000089545B321E030E0B90102C0660F771F1F
:1004B0008A95E2F7CB018095842385BB089542B3EA
:1004C00021E030E0B90102C0660F771F8A95E2F79C
:0E04D000CB018095842382BB0895F894FFCF62
:1004DE00000000000000000000000000000000000E
:1004EE0000000000000000000002020200000000F8
:00000001FF
