S01700004763634170706C69636174696F6E322E737265635A
S11300000C942A000C943F000C943F000C943F0085
S11300100C943F000C943F000C943F000C943F0060
S11300200C943F000C943F000C943F000C943F0050
S11300300C943F000C943F000C943F000C943F0040
S11300400C943F000C943F000C943F000C943F0030
S11300500C943F0011241FBECFE5D8E0DEBFCDBF16
S113006010E0A0E6B0E0ECE2F2E002C005900D92F0
S1130070A036B107D9F70E9441000C9414010C94E6
S1130080000041E060E080E00E94560040E061E052
S113009081E00E94560042E062E082E00E94560045
S11300A041E063E083E00E945600FFCF413029F035
S11300B0C0F1423009F470C00895813089F028F00D
S11300C08230C9F0833011F108952AB381E090E0C1
S11300D002C0880F991F6A95E2F7822B8ABB0895A4
S11300E027B381E090E002C0880F991F6A95E2F778
S11300F0822B87BB089524B381E090E002C0880F6F
S1130100991F6A95E2F7822B84BB089521B381E09D
S113011090E002C0880F991F6A95E2F7822B81BB99
S11301200895813099F028F08230E9F0833041F16C
S113013033C09AB321E030E0062E02C0220F331FF1
S11301400A94E2F7209529232ABB26C097B321E01D
S113015030E0062E02C0220F331F0A94E2F72095E6
S1130160292327BB19C094B321E030E0062E02C036
S1130170220F331F0A94E2F72095292324BB0CC0D5
S113018091B321E030E0062E02C0220F331F0A94FF
S1130190E2F72095292321BB8130B1F028F0823089
S11301A019F1833089F108952AB381E090E002C007
S11301B0880F991F6A95E2F7982F909592239ABB1E
S11301C09BB3892B8BBB089527B381E090E002C0D9
S11301D0880F991F6A95E2F7982F9095922397BB01
S11301E098B3892B88BB089524B381E090E002C0C2
S11301F0880F991F6A95E2F7982F9095922394BBE4
S113020095B3892B85BB089521B381E090E002C0AA
S1130210880F991F6A95E2F7982F9095922391BBC6
S10F022092B3892B82BB0895F894FFCFA1
S9030000FC
